{
  "address": "0x74ef2B06A1D2035C33244A4a263FF00B84504865",
  "abi": [
    {
      "anonymous": false,
      "inputs": [
        {
          "indexed": false,
          "internalType": "uint256",
          "name": "id",
          "type": "uint256"
        }
      ],
      "name": "Cancel",
      "type": "event"
    },
    {
      "anonymous": false,
      "inputs": [
        {
          "indexed": false,
          "internalType": "uint256",
          "name": "id",
          "type": "uint256"
        }
      ],
      "name": "Claim",
      "type": "event"
    },
    {
      "anonymous": false,
      "inputs": [
        {
          "indexed": false,
          "internalType": "uint8",
          "name": "version",
          "type": "uint8"
        }
      ],
      "name": "Initialized",
      "type": "event"
    },
    {
      "anonymous": false,
      "inputs": [
        {
          "indexed": false,
          "internalType": "uint256",
          "name": "id",
          "type": "uint256"
        },
        {
          "indexed": true,
          "internalType": "address",
          "name": "creator",
          "type": "address"
        },
        {
          "indexed": false,
          "internalType": "uint256",
          "name": "goal",
          "type": "uint256"
        },
        {
          "indexed": false,
          "internalType": "uint32",
          "name": "startAt",
          "type": "uint32"
        },
        {
          "indexed": false,
          "internalType": "uint32",
          "name": "endAt",
          "type": "uint32"
        }
      ],
      "name": "Launch",
      "type": "event"
    },
    {
      "anonymous": false,
      "inputs": [
        {
          "indexed": true,
          "internalType": "uint256",
          "name": "id",
          "type": "uint256"
        },
        {
          "indexed": true,
          "internalType": "address",
          "name": "caller",
          "type": "address"
        },
        {
          "indexed": false,
          "internalType": "uint256",
          "name": "amount",
          "type": "uint256"
        }
      ],
      "name": "Pledged",
      "type": "event"
    },
    {
      "anonymous": false,
      "inputs": [
        {
          "indexed": true,
          "internalType": "uint256",
          "name": "id",
          "type": "uint256"
        },
        {
          "indexed": true,
          "internalType": "address",
          "name": "caller",
          "type": "address"
        },
        {
          "indexed": false,
          "internalType": "uint256",
          "name": "amount",
          "type": "uint256"
        }
      ],
      "name": "Refund",
      "type": "event"
    },
    {
      "anonymous": false,
      "inputs": [
        {
          "indexed": true,
          "internalType": "uint256",
          "name": "id",
          "type": "uint256"
        },
        {
          "indexed": true,
          "internalType": "address",
          "name": "caller",
          "type": "address"
        },
        {
          "indexed": false,
          "internalType": "uint256",
          "name": "amount",
          "type": "uint256"
        }
      ],
      "name": "Unpledged",
      "type": "event"
    },
    {
      "inputs": [
        {
          "internalType": "uint256",
          "name": "",
          "type": "uint256"
        }
      ],
      "name": "campaigns",
      "outputs": [
        {
          "internalType": "uint256",
          "name": "id",
          "type": "uint256"
        },
        {
          "internalType": "address",
          "name": "creator",
          "type": "address"
        },
        {
          "internalType": "uint256",
          "name": "goal",
          "type": "uint256"
        },
        {
          "internalType": "uint256",
          "name": "pledged",
          "type": "uint256"
        },
        {
          "internalType": "uint32",
          "name": "startAt",
          "type": "uint32"
        },
        {
          "internalType": "uint32",
          "name": "endAt",
          "type": "uint32"
        },
        {
          "internalType": "bool",
          "name": "claimed",
          "type": "bool"
        },
        {
          "internalType": "bool",
          "name": "cancelled",
          "type": "bool"
        }
      ],
      "stateMutability": "view",
      "type": "function"
    },
    {
      "inputs": [
        {
          "internalType": "uint256",
          "name": "_id",
          "type": "uint256"
        }
      ],
      "name": "cancel",
      "outputs": [],
      "stateMutability": "nonpayable",
      "type": "function"
    },
    {
      "inputs": [
        {
          "internalType": "uint256",
          "name": "_id",
          "type": "uint256"
        }
      ],
      "name": "claim",
      "outputs": [],
      "stateMutability": "nonpayable",
      "type": "function"
    },
    {
      "inputs": [],
      "name": "count",
      "outputs": [
        {
          "internalType": "uint256",
          "name": "",
          "type": "uint256"
        }
      ],
      "stateMutability": "view",
      "type": "function"
    },
    {
      "inputs": [
        {
          "internalType": "contract IERC20",
          "name": "_token",
          "type": "address"
        },
        {
          "internalType": "uint256",
          "name": "_maxDuration",
          "type": "uint256"
        },
        {
          "internalType": "uint256",
          "name": "_minDuration",
          "type": "uint256"
        }
      ],
      "name": "initialize",
      "outputs": [],
      "stateMutability": "nonpayable",
      "type": "function"
    },
    {
      "inputs": [
        {
          "internalType": "uint256",
          "name": "_goal",
          "type": "uint256"
        },
        {
          "internalType": "uint32",
          "name": "_startAt",
          "type": "uint32"
        },
        {
          "internalType": "uint32",
          "name": "_endAt",
          "type": "uint32"
        }
      ],
      "name": "launch",
      "outputs": [],
      "stateMutability": "nonpayable",
      "type": "function"
    },
    {
      "inputs": [],
      "name": "maxDuration",
      "outputs": [
        {
          "internalType": "uint256",
          "name": "",
          "type": "uint256"
        }
      ],
      "stateMutability": "view",
      "type": "function"
    },
    {
      "inputs": [],
      "name": "minDuration",
      "outputs": [
        {
          "internalType": "uint256",
          "name": "",
          "type": "uint256"
        }
      ],
      "stateMutability": "view",
      "type": "function"
    },
    {
      "inputs": [
        {
          "internalType": "uint256",
          "name": "_id",
          "type": "uint256"
        },
        {
          "internalType": "uint256",
          "name": "_amount",
          "type": "uint256"
        }
      ],
      "name": "pledge",
      "outputs": [],
      "stateMutability": "nonpayable",
      "type": "function"
    },
    {
      "inputs": [
        {
          "internalType": "uint256",
          "name": "",
          "type": "uint256"
        },
        {
          "internalType": "address",
          "name": "",
          "type": "address"
        }
      ],
      "name": "pledgedAmount",
      "outputs": [
        {
          "internalType": "uint256",
          "name": "",
          "type": "uint256"
        }
      ],
      "stateMutability": "view",
      "type": "function"
    },
    {
      "inputs": [
        {
          "internalType": "uint256",
          "name": "_id",
          "type": "uint256"
        }
      ],
      "name": "refund",
      "outputs": [],
      "stateMutability": "nonpayable",
      "type": "function"
    },
    {
      "inputs": [],
      "name": "token",
      "outputs": [
        {
          "internalType": "contract IERC20",
          "name": "",
          "type": "address"
        }
      ],
      "stateMutability": "view",
      "type": "function"
    },
    {
      "inputs": [
        {
          "internalType": "uint256",
          "name": "_id",
          "type": "uint256"
        },
        {
          "internalType": "uint256",
          "name": "_amount",
          "type": "uint256"
        }
      ],
      "name": "unpledge",
      "outputs": [],
      "stateMutability": "nonpayable",
      "type": "function"
    }
  ],
  "transactionHash": "0x44213dbbefa885b16c39b62801b1774c630a8a86c6b9440d57f4bbd3817e60d5",
  "args": [],
  "numDeployments": 1,
  "solcInputHash": "b8cca189a2354850af9b3c13a2fb7cd9",
  "bytecode": "0x608060405234801561001057600080fd5b5061296d806100206000396000f3fe608060405234801561001057600080fd5b50600436106100cf5760003560e01c8063567157611161008c5780637a1ac61e116100665780637a1ac61e146101f1578063aa4fb63a1461020d578063fc0c546a1461023d578063fde327be1461025b576100cf565b806356715761146101995780636db5c8fd146101b7578063711853ab146101d5576100cf565b806306661abd146100d4578063141961bc146100f2578063278ecde1146101295780632c63f14614610145578063379607f51461016157806340e58ee51461017d575b600080fd5b6100dc610277565b6040516100e991906119c1565b60405180910390f35b61010c60048036038101906101079190611a0d565b61027d565b604051610120989796959493929190611ab5565b60405180910390f35b610143600480360381019061013e9190611a0d565b61031f565b005b61015f600480360381019061015a9190611b5f565b610500565b005b61017b60048036038101906101769190611a0d565b6107af565b005b61019760048036038101906101929190611a0d565b610ad9565b005b6101a1610caa565b6040516101ae91906119c1565b60405180910390f35b6101bf610cb0565b6040516101cc91906119c1565b60405180910390f35b6101ef60048036038101906101ea9190611bb2565b610cb6565b005b61020b60048036038101906102069190611c30565b610de1565b005b61022760048036038101906102229190611caf565b610f69565b60405161023491906119c1565b60405180910390f35b610245610f8e565b6040516102529190611d4e565b60405180910390f35b61027560048036038101906102709190611bb2565b610fb4565b005b60035481565b60046020528060005260406000206000915090508060000154908060010160009054906101000a900473ffffffffffffffffffffffffffffffffffffffff16908060020154908060030154908060040160009054906101000a900463ffffffff16908060040160049054906101000a900463ffffffff16908060040160089054906101000a900460ff16908060040160099054906101000a900460ff16905088565b8060006004600083815260200190815260200160002060000154141561037a576040517f08c379a000000000000000000000000000000000000000000000000000000000815260040161037190611dc6565b60405180910390fd5b816004600082815260200190815260200160002060040160049054906101000a900463ffffffff1663ffffffff1642116103e9576040517f08c379a00000000000000000000000000000000000000000000000000000000081526004016103e090611e32565b60405180910390fd5b6000600460008581526020019081526020016000209050806002015481600301541061044a576040517f08c379a000000000000000000000000000000000000000000000000000000000815260040161044190611e9e565b60405180910390fd5b60006005600086815260200190815260200160002060003373ffffffffffffffffffffffffffffffffffffffff1673ffffffffffffffffffffffffffffffffffffffff1681526020019081526020016000205490506104aa338683611294565b3373ffffffffffffffffffffffffffffffffffffffff16857f21e12a7cad0da5928167e1084ea4d5fdf8d9af66657a2543a9ac76a0ca081477836040516104f191906119c1565b60405180910390a35050505050565b428263ffffffff161015610549576040517f08c379a000000000000000000000000000000000000000000000000000000000815260040161054090611f0a565b60405180910390fd5b6002548263ffffffff1661055d9190611f59565b8163ffffffff161015801561058b57506001548263ffffffff166105819190611f59565b8163ffffffff1611155b6105ca576040517f08c379a00000000000000000000000000000000000000000000000000000000081526004016105c190611ffb565b60405180910390fd5b6001600360008282546105dd9190611f59565b9250508190555060405180610100016040528060035481526020013373ffffffffffffffffffffffffffffffffffffffff168152602001848152602001600081526020018363ffffffff1681526020018263ffffffff168152602001600015158152602001600015158152506004600060035481526020019081526020016000206000820151816000015560208201518160010160006101000a81548173ffffffffffffffffffffffffffffffffffffffff021916908373ffffffffffffffffffffffffffffffffffffffff160217905550604082015181600201556060820151816003015560808201518160040160006101000a81548163ffffffff021916908363ffffffff16021790555060a08201518160040160046101000a81548163ffffffff021916908363ffffffff16021790555060c08201518160040160086101000a81548160ff02191690831515021790555060e08201518160040160096101000a81548160ff0219169083151502179055509050503373ffffffffffffffffffffffffffffffffffffffff167f0601cd0d650b473037e838a2696d41e654433d065b3f56b28d1d3302e44a304f6003548585856040516107a2949392919061201b565b60405180910390a2505050565b803373ffffffffffffffffffffffffffffffffffffffff166004600083815260200190815260200160002060010160009054906101000a900473ffffffffffffffffffffffffffffffffffffffff1673ffffffffffffffffffffffffffffffffffffffff1614610854576040517f08c379a000000000000000000000000000000000000000000000000000000000815260040161084b906120ac565b60405180910390fd5b816004600082815260200190815260200160002060040160099054906101000a900460ff16156108b9576040517f08c379a00000000000000000000000000000000000000000000000000000000081526004016108b090612118565b60405180910390fd5b826004600082815260200190815260200160002060040160049054906101000a900463ffffffff1663ffffffff164211610928576040517f08c379a000000000000000000000000000000000000000000000000000000000815260040161091f90611e32565b60405180910390fd5b600060046000868152602001908152602001600020905080600201548160030154101561098a576040517f08c379a000000000000000000000000000000000000000000000000000000000815260040161098190612184565b60405180910390fd5b8060040160089054906101000a900460ff16156109dc576040517f08c379a00000000000000000000000000000000000000000000000000000000081526004016109d3906121f0565b60405180910390fd5b60018160040160086101000a81548160ff021916908315150217905550610a4a338260030154600060029054906101000a900473ffffffffffffffffffffffffffffffffffffffff1673ffffffffffffffffffffffffffffffffffffffff166114839092919063ffffffff16565b610a9b338260030154600060029054906101000a900473ffffffffffffffffffffffffffffffffffffffff1673ffffffffffffffffffffffffffffffffffffffff166115e19092919063ffffffff16565b7f7bb2b3c10797baccb6f8c4791f1edd6ca2f0d028ee0eda64b01a9a57e3a653f785604051610aca91906119c1565b60405180910390a15050505050565b80600060046000838152602001908152602001600020600001541415610b34576040517f08c379a0000000000000000000000000000000000000000000000000000000008152600401610b2b90611dc6565b60405180910390fd5b813373ffffffffffffffffffffffffffffffffffffffff166004600083815260200190815260200160002060010160009054906101000a900473ffffffffffffffffffffffffffffffffffffffff1673ffffffffffffffffffffffffffffffffffffffff1614610bd9576040517f08c379a0000000000000000000000000000000000000000000000000000000008152600401610bd0906120ac565b60405180910390fd5b826004600082815260200190815260200160002060040160099054906101000a900460ff1615610c3e576040517f08c379a0000000000000000000000000000000000000000000000000000000008152600401610c3590612118565b60405180910390fd5b60016004600086815260200190815260200160002060040160096101000a81548160ff0219169083151502179055507f8bf30e7ff26833413be5f69e1d373744864d600b664204b4a2f9844a8eedb9ed84604051610c9c91906119c1565b60405180910390a150505050565b60025481565b60015481565b81600060046000838152602001908152602001600020600001541415610d11576040517f08c379a0000000000000000000000000000000000000000000000000000000008152600401610d0890611dc6565b60405180910390fd5b826004600082815260200190815260200160002060040160049054906101000a900463ffffffff1663ffffffff16421115610d81576040517f08c379a0000000000000000000000000000000000000000000000000000000008152600401610d789061225c565b60405180910390fd5b610d8c338585611294565b3373ffffffffffffffffffffffffffffffffffffffff16847ffcd29b1632c6748a9a4bb9b4cd5c6486c3c84a8550dce2368f83fef3969d968585604051610dd391906119c1565b60405180910390a350505050565b60008060019054906101000a900460ff16159050808015610e125750600160008054906101000a900460ff1660ff16105b80610e3f5750610e2130611667565b158015610e3e5750600160008054906101000a900460ff1660ff16145b5b610e7e576040517f08c379a0000000000000000000000000000000000000000000000000000000008152600401610e75906122ee565b60405180910390fd5b60016000806101000a81548160ff021916908360ff1602179055508015610ebb576001600060016101000a81548160ff0219169083151502179055505b83600060026101000a81548173ffffffffffffffffffffffffffffffffffffffff021916908373ffffffffffffffffffffffffffffffffffffffff16021790555082600181905550816002819055508015610f635760008060016101000a81548160ff0219169083151502179055507f7f26b83ff96e1f2b6a682f133852f6798a09c465da95921460cefb38474024986001604051610f5a9190612356565b60405180910390a15b50505050565b6005602052816000526040600020602052806000526040600020600091509150505481565b600060029054906101000a900473ffffffffffffffffffffffffffffffffffffffff1681565b8160006004600083815260200190815260200160002060000154141561100f576040517f08c379a000000000000000000000000000000000000000000000000000000000815260040161100690611dc6565b60405180910390fd5b826004600082815260200190815260200160002060040160099054906101000a900460ff1615611074576040517f08c379a000000000000000000000000000000000000000000000000000000000815260040161106b90612118565b60405180910390fd5b836004600082815260200190815260200160002060040160009054906101000a900463ffffffff1663ffffffff164210156110e4576040517f08c379a00000000000000000000000000000000000000000000000000000000081526004016110db906123bd565b60405180910390fd5b846004600082815260200190815260200160002060040160049054906101000a900463ffffffff1663ffffffff16421115611154576040517f08c379a000000000000000000000000000000000000000000000000000000000815260040161114b9061225c565b60405180910390fd5b60006004600088815260200190815260200160002090508581600301600082825461117f9190611f59565b92505081905550856005600089815260200190815260200160002060003373ffffffffffffffffffffffffffffffffffffffff1673ffffffffffffffffffffffffffffffffffffffff16815260200190815260200160002060008282546111e69190611f59565b9250508190555061123c333088600060029054906101000a900473ffffffffffffffffffffffffffffffffffffffff1673ffffffffffffffffffffffffffffffffffffffff1661168a909392919063ffffffff16565b3373ffffffffffffffffffffffffffffffffffffffff16877f2757ac6a40883f4491cc56930ae964df9034e343e660d5179eb01e198336756b8860405161128391906119c1565b60405180910390a350505050505050565b60006005600084815260200190815260200160002060008573ffffffffffffffffffffffffffffffffffffffff1673ffffffffffffffffffffffffffffffffffffffff168152602001908152602001600020549050600073ffffffffffffffffffffffffffffffffffffffff168473ffffffffffffffffffffffffffffffffffffffff161415611359576040517f08c379a000000000000000000000000000000000000000000000000000000000815260040161135090612429565b60405180910390fd5b6000821180156113695750808211155b6113a8576040517f08c379a000000000000000000000000000000000000000000000000000000000815260040161139f90612495565b60405180910390fd5b81816113b491906124b5565b9050816004600085815260200190815260200160002060030160008282546113dc91906124b5565b925050819055506114308483600060029054906101000a900473ffffffffffffffffffffffffffffffffffffffff1673ffffffffffffffffffffffffffffffffffffffff166114839092919063ffffffff16565b61147d8483600060029054906101000a900473ffffffffffffffffffffffffffffffffffffffff1673ffffffffffffffffffffffffffffffffffffffff166115e19092919063ffffffff16565b50505050565b600081148061151c575060008373ffffffffffffffffffffffffffffffffffffffff1663dd62ed3e30856040518363ffffffff1660e01b81526004016114ca9291906124e9565b60206040518083038186803b1580156114e257600080fd5b505afa1580156114f6573d6000803e3d6000fd5b505050506040513d601f19601f8201168201806040525081019061151a9190612527565b145b61155b576040517f08c379a0000000000000000000000000000000000000000000000000000000008152600401611552906125c6565b60405180910390fd5b6115dc8363095ea7b360e01b848460405160240161157a9291906125e6565b604051602081830303815290604052907bffffffffffffffffffffffffffffffffffffffffffffffffffffffff19166020820180517bffffffffffffffffffffffffffffffffffffffffffffffffffffffff8381831617835250505050611713565b505050565b6116628363a9059cbb60e01b84846040516024016116009291906125e6565b604051602081830303815290604052907bffffffffffffffffffffffffffffffffffffffffffffffffffffffff19166020820180517bffffffffffffffffffffffffffffffffffffffffffffffffffffffff8381831617835250505050611713565b505050565b6000808273ffffffffffffffffffffffffffffffffffffffff163b119050919050565b61170d846323b872dd60e01b8585856040516024016116ab9392919061260f565b604051602081830303815290604052907bffffffffffffffffffffffffffffffffffffffffffffffffffffffff19166020820180517bffffffffffffffffffffffffffffffffffffffffffffffffffffffff8381831617835250505050611713565b50505050565b6000611775826040518060400160405280602081526020017f5361666545524332303a206c6f772d6c6576656c2063616c6c206661696c65648152508573ffffffffffffffffffffffffffffffffffffffff166117da9092919063ffffffff16565b90506000815111156117d557808060200190518101906117959190612672565b6117d4576040517f08c379a00000000000000000000000000000000000000000000000000000000081526004016117cb90612711565b60405180910390fd5b5b505050565b60606117e984846000856117f2565b90509392505050565b606082471015611837576040517f08c379a000000000000000000000000000000000000000000000000000000000815260040161182e906127a3565b60405180910390fd5b6000808673ffffffffffffffffffffffffffffffffffffffff168587604051611860919061283d565b60006040518083038185875af1925050503d806000811461189d576040519150601f19603f3d011682016040523d82523d6000602084013e6118a2565b606091505b50915091506118b3878383876118bf565b92505050949350505050565b606083156119225760008351141561191a576118da85611935565b611919576040517f08c379a0000000000000000000000000000000000000000000000000000000008152600401611910906128a0565b60405180910390fd5b5b82905061192d565b61192c8383611958565b5b949350505050565b6000808273ffffffffffffffffffffffffffffffffffffffff163b119050919050565b60008251111561196b5781518083602001fd5b806040517f08c379a000000000000000000000000000000000000000000000000000000000815260040161199f9190612915565b60405180910390fd5b6000819050919050565b6119bb816119a8565b82525050565b60006020820190506119d660008301846119b2565b92915050565b600080fd5b6119ea816119a8565b81146119f557600080fd5b50565b600081359050611a07816119e1565b92915050565b600060208284031215611a2357611a226119dc565b5b6000611a31848285016119f8565b91505092915050565b600073ffffffffffffffffffffffffffffffffffffffff82169050919050565b6000611a6582611a3a565b9050919050565b611a7581611a5a565b82525050565b600063ffffffff82169050919050565b611a9481611a7b565b82525050565b60008115159050919050565b611aaf81611a9a565b82525050565b600061010082019050611acb600083018b6119b2565b611ad8602083018a611a6c565b611ae560408301896119b2565b611af260608301886119b2565b611aff6080830187611a8b565b611b0c60a0830186611a8b565b611b1960c0830185611aa6565b611b2660e0830184611aa6565b9998505050505050505050565b611b3c81611a7b565b8114611b4757600080fd5b50565b600081359050611b5981611b33565b92915050565b600080600060608486031215611b7857611b776119dc565b5b6000611b86868287016119f8565b9350506020611b9786828701611b4a565b9250506040611ba886828701611b4a565b9150509250925092565b60008060408385031215611bc957611bc86119dc565b5b6000611bd7858286016119f8565b9250506020611be8858286016119f8565b9150509250929050565b6000611bfd82611a5a565b9050919050565b611c0d81611bf2565b8114611c1857600080fd5b50565b600081359050611c2a81611c04565b92915050565b600080600060608486031215611c4957611c486119dc565b5b6000611c5786828701611c1b565b9350506020611c68868287016119f8565b9250506040611c79868287016119f8565b9150509250925092565b611c8c81611a5a565b8114611c9757600080fd5b50565b600081359050611ca981611c83565b92915050565b60008060408385031215611cc657611cc56119dc565b5b6000611cd4858286016119f8565b9250506020611ce585828601611c9a565b9150509250929050565b6000819050919050565b6000611d14611d0f611d0a84611a3a565b611cef565b611a3a565b9050919050565b6000611d2682611cf9565b9050919050565b6000611d3882611d1b565b9050919050565b611d4881611d2d565b82525050565b6000602082019050611d636000830184611d3f565b92915050565b600082825260208201905092915050565b7f63616d706169676e20646f6573206e6f74206578697374000000000000000000600082015250565b6000611db0601783611d69565b9150611dbb82611d7a565b602082019050919050565b60006020820190508181036000830152611ddf81611da3565b9050919050565b7f63616d706169676e206e6f7420656e6465640000000000000000000000000000600082015250565b6000611e1c601283611d69565b9150611e2782611de6565b602082019050919050565b60006020820190508181036000830152611e4b81611e0f565b9050919050565b7f706c6564676564203e3d20676f616c0000000000000000000000000000000000600082015250565b6000611e88600f83611d69565b9150611e9382611e52565b602082019050919050565b60006020820190508181036000830152611eb781611e7b565b9050919050565b7f7374617274206174203c206e6f77000000000000000000000000000000000000600082015250565b6000611ef4600e83611d69565b9150611eff82611ebe565b602082019050919050565b60006020820190508181036000830152611f2381611ee7565b9050919050565b7f4e487b7100000000000000000000000000000000000000000000000000000000600052601160045260246000fd5b6000611f64826119a8565b9150611f6f836119a8565b9250827fffffffffffffffffffffffffffffffffffffffffffffffffffffffffffffffff03821115611fa457611fa3611f2a565b5b828201905092915050565b7f6e6f7420696e206d696e2026206d6178206475726174696f6e00000000000000600082015250565b6000611fe5601983611d69565b9150611ff082611faf565b602082019050919050565b6000602082019050818103600083015261201481611fd8565b9050919050565b600060808201905061203060008301876119b2565b61203d60208301866119b2565b61204a6040830185611a8b565b6120576060830184611a8b565b95945050505050565b7f6e6f742063726561746f72000000000000000000000000000000000000000000600082015250565b6000612096600b83611d69565b91506120a182612060565b602082019050919050565b600060208201905081810360008301526120c581612089565b9050919050565b7f63616d706169676e2063616e63656c6c65640000000000000000000000000000600082015250565b6000612102601283611d69565b915061210d826120cc565b602082019050919050565b60006020820190508181036000830152612131816120f5565b9050919050565b7f706c6564676564203c20676f616c000000000000000000000000000000000000600082015250565b600061216e600e83611d69565b915061217982612138565b602082019050919050565b6000602082019050818103600083015261219d81612161565b9050919050565b7f636c61696d656400000000000000000000000000000000000000000000000000600082015250565b60006121da600783611d69565b91506121e5826121a4565b602082019050919050565b60006020820190508181036000830152612209816121cd565b9050919050565b7f63616d706169676e20656e646564000000000000000000000000000000000000600082015250565b6000612246600e83611d69565b915061225182612210565b602082019050919050565b6000602082019050818103600083015261227581612239565b9050919050565b7f496e697469616c697a61626c653a20636f6e747261637420697320616c72656160008201527f647920696e697469616c697a6564000000000000000000000000000000000000602082015250565b60006122d8602e83611d69565b91506122e38261227c565b604082019050919050565b60006020820190508181036000830152612307816122cb565b9050919050565b6000819050919050565b600060ff82169050919050565b600061234061233b6123368461230e565b611cef565b612318565b9050919050565b61235081612325565b82525050565b600060208201905061236b6000830184612347565b92915050565b7f63616d706169676e206e6f742073746172746564000000000000000000000000600082015250565b60006123a7601483611d69565b91506123b282612371565b602082019050919050565b600060208201905081810360008301526123d68161239a565b9050919050565b7f696e76616c696420616464726573730000000000000000000000000000000000600082015250565b6000612413600f83611d69565b915061241e826123dd565b602082019050919050565b6000602082019050818103600083015261244281612406565b9050919050565b7f696e76616c696420616d6f756e74000000000000000000000000000000000000600082015250565b600061247f600e83611d69565b915061248a82612449565b602082019050919050565b600060208201905081810360008301526124ae81612472565b9050919050565b60006124c0826119a8565b91506124cb836119a8565b9250828210156124de576124dd611f2a565b5b828203905092915050565b60006040820190506124fe6000830185611a6c565b61250b6020830184611a6c565b9392505050565b600081519050612521816119e1565b92915050565b60006020828403121561253d5761253c6119dc565b5b600061254b84828501612512565b91505092915050565b7f5361666545524332303a20617070726f76652066726f6d206e6f6e2d7a65726f60008201527f20746f206e6f6e2d7a65726f20616c6c6f77616e636500000000000000000000602082015250565b60006125b0603683611d69565b91506125bb82612554565b604082019050919050565b600060208201905081810360008301526125df816125a3565b9050919050565b60006040820190506125fb6000830185611a6c565b61260860208301846119b2565b9392505050565b60006060820190506126246000830186611a6c565b6126316020830185611a6c565b61263e60408301846119b2565b949350505050565b61264f81611a9a565b811461265a57600080fd5b50565b60008151905061266c81612646565b92915050565b600060208284031215612688576126876119dc565b5b60006126968482850161265d565b91505092915050565b7f5361666545524332303a204552433230206f7065726174696f6e20646964206e60008201527f6f74207375636365656400000000000000000000000000000000000000000000602082015250565b60006126fb602a83611d69565b91506127068261269f565b604082019050919050565b6000602082019050818103600083015261272a816126ee565b9050919050565b7f416464726573733a20696e73756666696369656e742062616c616e636520666f60008201527f722063616c6c0000000000000000000000000000000000000000000000000000602082015250565b600061278d602683611d69565b915061279882612731565b604082019050919050565b600060208201905081810360008301526127bc81612780565b9050919050565b600081519050919050565b600081905092915050565b60005b838110156127f75780820151818401526020810190506127dc565b83811115612806576000848401525b50505050565b6000612817826127c3565b61282181856127ce565b93506128318185602086016127d9565b80840191505092915050565b6000612849828461280c565b915081905092915050565b7f416464726573733a2063616c6c20746f206e6f6e2d636f6e7472616374000000600082015250565b600061288a601d83611d69565b915061289582612854565b602082019050919050565b600060208201905081810360008301526128b98161287d565b9050919050565b600081519050919050565b6000601f19601f8301169050919050565b60006128e7826128c0565b6128f18185611d69565b93506129018185602086016127d9565b61290a816128cb565b840191505092915050565b6000602082019050818103600083015261292f81846128dc565b90509291505056fea26469706673582212205eb943e8e8a158b1dd5054fb95a1bf811215aed494f7404bd144dfb9b83c77f564736f6c63430008080033",
  "devdoc": {
    "kind": "dev",
    "methods": {
      "cancel(uint256)": {
        "details": "function called by campaign creator to cancel a crowdfunding campaign",
        "params": {
          "_id": "- the uinique uint256 id of the campaign to be cancelled"
        }
      },
      "claim(uint256)": {
        "details": "function called by campaign creator to receive fundscaller must be creator, creator cannot have cancelled the campaign, campaign must have passed end at time, the campaign goal must have been met or exceededthis function can only be called once by creator",
        "params": {
          "_id": "- the uinique uint256 id of the campaign which funds are claimed"
        }
      },
      "initialize(address,uint256,uint256)": {
        "details": "dunction from @openzeppelin to initialize this as the base contract for upgradesmust be the first function called"
      },
      "launch(uint256,uint32,uint32)": {
        "details": "function called by campaign creator to create the crowdfunding campaign and add Campaign to mapping",
        "params": {
          "_endAt": "- the block.timestamp at which the campaign will end (note: must be >= starting time + minDuration and <= starting time + maxDuration)",
          "_goal": "- the amount of tokens the campaign aims to receive",
          "_startAt": "- the time the campaign will begin (note: _startAt time is passed in by creator and not necessarily the time the creator calls the launch function)"
        }
      },
      "pledge(uint256,uint256)": {
        "details": "function to transfer tokens from pledger into the contractsender must first call approve on the ERC20 token for this contract address and _amountcampaign must not be cancelled, must be within startAt and endAt times",
        "params": {
          "_amount": "- the amount of tokens trasferred from pledger into contract",
          "_id": "- the uinique uint256 id of the campaign to be pledged"
        }
      },
      "refund(uint256)": {
        "details": "function to refund ALL the pledged tokens from pledger in this contract back to the pledger AFTER a campaign has ended and failedwhen a funding goal is not met, pledgers are be able to get a refund of their pledged funds",
        "params": {
          "_id": "- the uinique uint256 id of the campaign to refund from"
        }
      },
      "unpledge(uint256,uint256)": {
        "details": "function for pledger to unpledge their tokens and receive them back BEFORE a campaign has ended (ex: unpledge if campaign cancelled before end time)pledger specifies amount of tokens to unpledge, if a campaign has ended and not met goal, pledger then calls refund function to receive all tokens back",
        "params": {
          "_amount": "- the amount of tokens transferred from contract back to pledger",
          "_id": "- the uinique uint256 id of the campaign to be unpledged"
        }
      }
    },
    "stateVariables": {
      "campaigns": {
        "details": "mapping of id to Campaign struct"
      },
      "count": {
        "details": "used to track and update unique campaign ids"
      },
      "maxDuration": {
        "details": "maximum and minimum length of times a campaign can be Set in initalize function"
      },
      "pledgedAmount": {
        "details": "mapping of campaign id to pledger to amount pledged"
      }
    },
    "version": 1
  },
  "userdoc": {
    "events": {
      "Launch(uint256,address,uint256,uint32,uint32)": {
        "notice": "dApps using the contract can observe state changes in transaction logs"
      }
    },
    "kind": "user",
    "methods": {},
    "version": 1
  },
  "storageLayout": {
    "storage": [
      {
        "astId": 6,
        "contract": "contracts/Crowdfund.sol:Crowdfund",
        "label": "_initialized",
        "offset": 0,
        "slot": "0",
        "type": "t_uint8"
      },
      {
        "astId": 9,
        "contract": "contracts/Crowdfund.sol:Crowdfund",
        "label": "_initializing",
        "offset": 1,
        "slot": "0",
        "type": "t_bool"
      },
      {
        "astId": 1842,
        "contract": "contracts/Crowdfund.sol:Crowdfund",
        "label": "token",
        "offset": 2,
        "slot": "0",
        "type": "t_contract(IERC20)1117"
      },
      {
        "astId": 1845,
        "contract": "contracts/Crowdfund.sol:Crowdfund",
        "label": "maxDuration",
        "offset": 0,
        "slot": "1",
        "type": "t_uint256"
      },
      {
        "astId": 1847,
        "contract": "contracts/Crowdfund.sol:Crowdfund",
        "label": "minDuration",
        "offset": 0,
        "slot": "2",
        "type": "t_uint256"
      },
      {
        "astId": 1850,
        "contract": "contracts/Crowdfund.sol:Crowdfund",
        "label": "count",
        "offset": 0,
        "slot": "3",
        "type": "t_uint256"
      },
      {
        "astId": 1856,
        "contract": "contracts/Crowdfund.sol:Crowdfund",
        "label": "campaigns",
        "offset": 0,
        "slot": "4",
        "type": "t_mapping(t_uint256,t_struct(Campaign)1835_storage)"
      },
      {
        "astId": 1863,
        "contract": "contracts/Crowdfund.sol:Crowdfund",
        "label": "pledgedAmount",
        "offset": 0,
        "slot": "5",
        "type": "t_mapping(t_uint256,t_mapping(t_address,t_uint256))"
      }
    ],
    "types": {
      "t_address": {
        "encoding": "inplace",
        "label": "address",
        "numberOfBytes": "20"
      },
      "t_bool": {
        "encoding": "inplace",
        "label": "bool",
        "numberOfBytes": "1"
      },
      "t_contract(IERC20)1117": {
        "encoding": "inplace",
        "label": "contract IERC20",
        "numberOfBytes": "20"
      },
      "t_mapping(t_address,t_uint256)": {
        "encoding": "mapping",
        "key": "t_address",
        "label": "mapping(address => uint256)",
        "numberOfBytes": "32",
        "value": "t_uint256"
      },
      "t_mapping(t_uint256,t_mapping(t_address,t_uint256))": {
        "encoding": "mapping",
        "key": "t_uint256",
        "label": "mapping(uint256 => mapping(address => uint256))",
        "numberOfBytes": "32",
        "value": "t_mapping(t_address,t_uint256)"
      },
      "t_mapping(t_uint256,t_struct(Campaign)1835_storage)": {
        "encoding": "mapping",
        "key": "t_uint256",
        "label": "mapping(uint256 => struct Crowdfund.Campaign)",
        "numberOfBytes": "32",
        "value": "t_struct(Campaign)1835_storage"
      },
      "t_struct(Campaign)1835_storage": {
        "encoding": "inplace",
        "label": "struct Crowdfund.Campaign",
        "members": [
          {
            "astId": 1820,
            "contract": "contracts/Crowdfund.sol:Crowdfund",
            "label": "id",
            "offset": 0,
            "slot": "0",
            "type": "t_uint256"
          },
          {
            "astId": 1822,
            "contract": "contracts/Crowdfund.sol:Crowdfund",
            "label": "creator",
            "offset": 0,
            "slot": "1",
            "type": "t_address"
          },
          {
            "astId": 1824,
            "contract": "contracts/Crowdfund.sol:Crowdfund",
            "label": "goal",
            "offset": 0,
            "slot": "2",
            "type": "t_uint256"
          },
          {
            "astId": 1826,
            "contract": "contracts/Crowdfund.sol:Crowdfund",
            "label": "pledged",
            "offset": 0,
            "slot": "3",
            "type": "t_uint256"
          },
          {
            "astId": 1828,
            "contract": "contracts/Crowdfund.sol:Crowdfund",
            "label": "startAt",
            "offset": 0,
            "slot": "4",
            "type": "t_uint32"
          },
          {
            "astId": 1830,
            "contract": "contracts/Crowdfund.sol:Crowdfund",
            "label": "endAt",
            "offset": 4,
            "slot": "4",
            "type": "t_uint32"
          },
          {
            "astId": 1832,
            "contract": "contracts/Crowdfund.sol:Crowdfund",
            "label": "claimed",
            "offset": 8,
            "slot": "4",
            "type": "t_bool"
          },
          {
            "astId": 1834,
            "contract": "contracts/Crowdfund.sol:Crowdfund",
            "label": "cancelled",
            "offset": 9,
            "slot": "4",
            "type": "t_bool"
          }
        ],
        "numberOfBytes": "160"
      },
      "t_uint256": {
        "encoding": "inplace",
        "label": "uint256",
        "numberOfBytes": "32"
      },
      "t_uint32": {
        "encoding": "inplace",
        "label": "uint32",
        "numberOfBytes": "4"
      },
      "t_uint8": {
        "encoding": "inplace",
        "label": "uint8",
        "numberOfBytes": "1"
      }
    }
  }
}